{
  "contractName": "MultiSigWallet",
  "abi": [
    {
      "inputs": [],
      "payable": false,
      "stateMutability": "nonpayable",
      "type": "constructor"
    },
    {
      "payable": true,
      "stateMutability": "payable",
      "type": "fallback"
    },
    {
      "anonymous": false,
      "inputs": [
        {
          "indexed": false,
          "name": "from",
          "type": "address"
        },
        {
          "indexed": false,
          "name": "amount",
          "type": "uint256"
        }
      ],
      "name": "DepositFunds",
      "type": "event"
    },
    {
      "anonymous": false,
      "inputs": [
        {
          "indexed": false,
          "name": "from",
          "type": "address"
        },
        {
          "indexed": false,
          "name": "to",
          "type": "address"
        },
        {
          "indexed": false,
          "name": "amount",
          "type": "uint256"
        },
        {
          "indexed": false,
          "name": "transactionId",
          "type": "uint256"
        }
      ],
      "name": "TransactionCreated",
      "type": "event"
    },
    {
      "anonymous": false,
      "inputs": [
        {
          "indexed": false,
          "name": "from",
          "type": "address"
        },
        {
          "indexed": false,
          "name": "to",
          "type": "address"
        },
        {
          "indexed": false,
          "name": "amount",
          "type": "uint256"
        },
        {
          "indexed": false,
          "name": "transactionId",
          "type": "uint256"
        }
      ],
      "name": "TransactionCompleted",
      "type": "event"
    },
    {
      "anonymous": false,
      "inputs": [
        {
          "indexed": false,
          "name": "by",
          "type": "address"
        },
        {
          "indexed": false,
          "name": "transactionId",
          "type": "uint256"
        }
      ],
      "name": "TransactionSigned",
      "type": "event"
    },
    {
      "constant": false,
      "inputs": [
        {
          "name": "owner",
          "type": "address"
        }
      ],
      "name": "addOwner",
      "outputs": [],
      "payable": false,
      "stateMutability": "nonpayable",
      "type": "function"
    },
    {
      "constant": false,
      "inputs": [
        {
          "name": "owner",
          "type": "address"
        }
      ],
      "name": "removeOwner",
      "outputs": [],
      "payable": false,
      "stateMutability": "nonpayable",
      "type": "function"
    },
    {
      "constant": false,
      "inputs": [
        {
          "name": "amount",
          "type": "uint256"
        }
      ],
      "name": "withdraw",
      "outputs": [],
      "payable": false,
      "stateMutability": "nonpayable",
      "type": "function"
    },
    {
      "constant": false,
      "inputs": [
        {
          "name": "to",
          "type": "address"
        },
        {
          "name": "amount",
          "type": "uint256"
        }
      ],
      "name": "transferTo",
      "outputs": [],
      "payable": false,
      "stateMutability": "nonpayable",
      "type": "function"
    },
    {
      "constant": true,
      "inputs": [],
      "name": "getPendingTransactions",
      "outputs": [
        {
          "name": "",
          "type": "uint256[]"
        }
      ],
      "payable": false,
      "stateMutability": "view",
      "type": "function"
    },
    {
      "constant": false,
      "inputs": [
        {
          "name": "transactionId",
          "type": "uint256"
        }
      ],
      "name": "signTransaction",
      "outputs": [],
      "payable": false,
      "stateMutability": "nonpayable",
      "type": "function"
    },
    {
      "constant": false,
      "inputs": [
        {
          "name": "transactionId",
          "type": "uint256"
        }
      ],
      "name": "deleteTransaction",
      "outputs": [],
      "payable": false,
      "stateMutability": "nonpayable",
      "type": "function"
    },
    {
      "constant": true,
      "inputs": [],
      "name": "walletBalance",
      "outputs": [
        {
          "name": "",
          "type": "uint256"
        }
      ],
      "payable": false,
      "stateMutability": "view",
      "type": "function"
    }
  ],
  "bytecode": "0x6060604052341561000f57600080fd5b336000806101000a81548173ffffffffffffffffffffffffffffffffffffffff021916908373ffffffffffffffffffffffffffffffffffffffff1602179055506110248061005e6000396000f30060606040526004361061008d576000357c0100000000000000000000000000000000000000000000000000000000900463ffffffff168062e9c006146100fa578063173825d91461011d5780632ccb1b30146101565780632e1a7d4d146101985780635d9ec210146101bb5780637065cb48146101de578063cd0a314b14610217578063d11db83f14610240575b7fd241e73300212f6df233a8e6d3146b88a9d4964e06621d54b5ff6afeba7b1b883334604051808373ffffffffffffffffffffffffffffffffffffffff1673ffffffffffffffffffffffffffffffffffffffff1681526020018281526020019250505060405180910390a1005b341561010557600080fd5b61011b60048080359060200190919050506102aa565b005b341561012857600080fd5b610154600480803573ffffffffffffffffffffffffffffffffffffffff169060200190919050506104ba565b005b341561016157600080fd5b610196600480803573ffffffffffffffffffffffffffffffffffffffff16906020019091908035906020019091905050610571565b005b34156101a357600080fd5b6101b9600480803590602001909190505061089b565b005b34156101c657600080fd5b6101dc60048080359060200190919050506108a8565b005b34156101e957600080fd5b610215600480803573ffffffffffffffffffffffffffffffffffffffff16906020019091905050610d28565b005b341561022257600080fd5b61022a610dde565b6040518082815260200191505060405180910390f35b341561024b57600080fd5b610253610dfd565b6040518080602001828103825283818151815260200191508051906020019060200280838360005b8381101561029657808201518184015260208101905061027b565b505050509050019250505060405180910390f35b6000806000809054906101000a900473ffffffffffffffffffffffffffffffffffffffff1673ffffffffffffffffffffffffffffffffffffffff163373ffffffffffffffffffffffffffffffffffffffff161480610356575060018060003373ffffffffffffffffffffffffffffffffffffffff1673ffffffffffffffffffffffffffffffffffffffff16815260200190815260200160002060009054906101000a900460ff1660ff16145b151561036157600080fd5b60009150600090505b6004805490508110156103f9578160ff16600114156103c45760048181548110151561039257fe5b9060005260206000209001546004600183038154811015156103b057fe5b9060005260206000209001819055506103ec565b6004818154811015156103d357fe5b9060005260206000209001548314156103eb57600191505b5b808060010191505061036a565b600460016004805490500381548110151561041057fe5b90600052602060002090016000905560048054809190600190036104349190610f0f565b5060036000848152602001908152602001600020600080820160006101000a81549073ffffffffffffffffffffffffffffffffffffffff02191690556001820160006101000a81549073ffffffffffffffffffffffffffffffffffffffff021916905560028201600090556003820160006101000a81549060ff02191690555050505050565b6000809054906101000a900473ffffffffffffffffffffffffffffffffffffffff1673ffffffffffffffffffffffffffffffffffffffff163373ffffffffffffffffffffffffffffffffffffffff1614151561051557600080fd5b6000600160008373ffffffffffffffffffffffffffffffffffffffff1673ffffffffffffffffffffffffffffffffffffffff16815260200190815260200160002060006101000a81548160ff021916908360ff16021790555050565b600061057b610f3b565b6000809054906101000a900473ffffffffffffffffffffffffffffffffffffffff1673ffffffffffffffffffffffffffffffffffffffff163373ffffffffffffffffffffffffffffffffffffffff161480610624575060018060003373ffffffffffffffffffffffffffffffffffffffff1673ffffffffffffffffffffffffffffffffffffffff16815260200190815260200160002060009054906101000a900460ff1660ff16145b151561062f57600080fd5b823073ffffffffffffffffffffffffffffffffffffffff16311015151561065557600080fd5b6002600081548092919060010191905055915033816000019073ffffffffffffffffffffffffffffffffffffffff16908173ffffffffffffffffffffffffffffffffffffffff168152505083816020019073ffffffffffffffffffffffffffffffffffffffff16908173ffffffffffffffffffffffffffffffffffffffff1681525050828160400181815250506000816060019060ff16908160ff1681525050806003600084815260200190815260200160002060008201518160000160006101000a81548173ffffffffffffffffffffffffffffffffffffffff021916908373ffffffffffffffffffffffffffffffffffffffff16021790555060208201518160010160006101000a81548173ffffffffffffffffffffffffffffffffffffffff021916908373ffffffffffffffffffffffffffffffffffffffff1602179055506040820151816002015560608201518160030160006101000a81548160ff021916908360ff160217905550905050600480548060010182816107d99190610f93565b9160005260206000209001600084909190915055507f41d8c89c4a25824354aa1f198d80d06f2f93f903a2d180d1ea20429a4678c4a433858585604051808573ffffffffffffffffffffffffffffffffffffffff1673ffffffffffffffffffffffffffffffffffffffff1681526020018473ffffffffffffffffffffffffffffffffffffffff1673ffffffffffffffffffffffffffffffffffffffff16815260200183815260200182815260200194505050505060405180910390a150505050565b6108a53382610571565b50565b60008060009054906101000a900473ffffffffffffffffffffffffffffffffffffffff1673ffffffffffffffffffffffffffffffffffffffff163373ffffffffffffffffffffffffffffffffffffffff161480610953575060018060003373ffffffffffffffffffffffffffffffffffffffff1673ffffffffffffffffffffffffffffffffffffffff16815260200190815260200160002060009054906101000a900460ff1660ff16145b151561095e57600080fd5b6003600083815260200190815260200160002090508060000160009054906101000a900473ffffffffffffffffffffffffffffffffffffffff1673ffffffffffffffffffffffffffffffffffffffff166000141515156109bd57600080fd5b8060000160009054906101000a900473ffffffffffffffffffffffffffffffffffffffff1673ffffffffffffffffffffffffffffffffffffffff163373ffffffffffffffffffffffffffffffffffffffff1614151515610a1c57600080fd5b60018160040160003373ffffffffffffffffffffffffffffffffffffffff1673ffffffffffffffffffffffffffffffffffffffff16815260200190815260200160002060009054906101000a900460ff1660ff1614151515610a7d57600080fd5b60018160040160003373ffffffffffffffffffffffffffffffffffffffff1673ffffffffffffffffffffffffffffffffffffffff16815260200190815260200160002060006101000a81548160ff021916908360ff16021790555080600301600081819054906101000a900460ff168092919060010191906101000a81548160ff021916908360ff160217905550507fac63e7e1dc16bccf900879686e74ca33eeb175b670e3aaa9d7e4ccf3781b7a7a3383604051808373ffffffffffffffffffffffffffffffffffffffff1673ffffffffffffffffffffffffffffffffffffffff1681526020018281526020019250505060405180910390a160028160030160009054906101000a900460ff1660ff16101515610d245780600201543073ffffffffffffffffffffffffffffffffffffffff163110151515610bbf57600080fd5b8060010160009054906101000a900473ffffffffffffffffffffffffffffffffffffffff1673ffffffffffffffffffffffffffffffffffffffff166108fc82600201549081150290604051600060405180830381858888f193505050501515610c2757600080fd5b7f394c4e679790fab24fd86614fd812811c9c835e4c475bdfc3d26fd0d6f7ca6fd8160000160009054906101000a900473ffffffffffffffffffffffffffffffffffffffff168260010160009054906101000a900473ffffffffffffffffffffffffffffffffffffffff16836002015485604051808573ffffffffffffffffffffffffffffffffffffffff1673ffffffffffffffffffffffffffffffffffffffff1681526020018473ffffffffffffffffffffffffffffffffffffffff1673ffffffffffffffffffffffffffffffffffffffff16815260200183815260200182815260200194505050505060405180910390a1610d23826102aa565b5b5050565b6000809054906101000a900473ffffffffffffffffffffffffffffffffffffffff1673ffffffffffffffffffffffffffffffffffffffff163373ffffffffffffffffffffffffffffffffffffffff16141515610d8357600080fd5b60018060008373ffffffffffffffffffffffffffffffffffffffff1673ffffffffffffffffffffffffffffffffffffffff16815260200190815260200160002060006101000a81548160ff021916908360ff16021790555050565b60003073ffffffffffffffffffffffffffffffffffffffff1631905090565b610e05610fbf565b6000809054906101000a900473ffffffffffffffffffffffffffffffffffffffff1673ffffffffffffffffffffffffffffffffffffffff163373ffffffffffffffffffffffffffffffffffffffff161480610eae575060018060003373ffffffffffffffffffffffffffffffffffffffff1673ffffffffffffffffffffffffffffffffffffffff16815260200190815260200160002060009054906101000a900460ff1660ff16145b1515610eb957600080fd5b6004805480602002602001604051908101604052809291908181526020018280548015610f0557602002820191906000526020600020905b815481526020019060010190808311610ef1575b5050505050905090565b815481835581811511610f3657818360005260206000209182019101610f359190610fd3565b5b505050565b608060405190810160405280600073ffffffffffffffffffffffffffffffffffffffff168152602001600073ffffffffffffffffffffffffffffffffffffffff16815260200160008152602001600060ff1681525090565b815481835581811511610fba57818360005260206000209182019101610fb99190610fd3565b5b505050565b602060405190810160405280600081525090565b610ff591905b80821115610ff1576000816000905550600101610fd9565b5090565b905600a165627a7a723058201e313bd26a753ea30e79b294e241e6165a9a690153ecada7e06261d4518dafd90029",
  "source": "pragma solidity ^0.4.0;\r\n\r\ncontract MultiSigWallet {\r\n\r\n    address private _owner;\r\n    mapping(address => uint8) private _owners;\r\n\r\n    uint constant MIN_SIGNATURES = 2;\r\n    uint private _transactionIdx;\r\n\r\n    struct Transaction {\r\n      address from;\r\n      address to;\r\n      uint amount;\r\n      uint8 signatureCount;\r\n      mapping (address => uint8) signatures;\r\n    }\r\n\r\n    mapping (uint => Transaction) private _transactions;\r\n    uint[] private _pendingTransactions;\r\n\r\n    modifier isOwner() {\r\n        require(msg.sender == _owner);\r\n        _;\r\n    }\r\n\r\n    modifier validOwner() {\r\n        require(msg.sender == _owner || _owners[msg.sender] == 1);\r\n        _;\r\n    }\r\n\r\n    event DepositFunds(address from, uint amount);\r\n    event TransactionCreated(address from, address to, uint amount, uint transactionId);\r\n    event TransactionCompleted(address from, address to, uint amount, uint transactionId);\r\n    event TransactionSigned(address by, uint transactionId);\r\n\r\n    function MultiSigWallet()\r\n        public {\r\n        _owner = msg.sender;\r\n    }\r\n\r\n    function addOwner(address owner)\r\n        isOwner\r\n        public {\r\n        _owners[owner] = 1;\r\n    }\r\n\r\n    function removeOwner(address owner)\r\n        isOwner\r\n        public {\r\n        _owners[owner] = 0;\r\n    }\r\n\r\n    function ()\r\n        public\r\n        payable {\r\n        DepositFunds(msg.sender, msg.value);\r\n    }\r\n\r\n    function withdraw(uint amount)\r\n        public {\r\n        transferTo(msg.sender, amount);\r\n    }\r\n\r\n    function transferTo(address to, uint amount)\r\n        validOwner\r\n        public {\r\n        require(address(this).balance >= amount);\r\n        uint transactionId = _transactionIdx++;\r\n\r\n        Transaction memory transaction;\r\n        transaction.from = msg.sender;\r\n        transaction.to = to;\r\n        transaction.amount = amount;\r\n        transaction.signatureCount = 0;\r\n\r\n        _transactions[transactionId] = transaction;\r\n        _pendingTransactions.push(transactionId);\r\n\r\n        TransactionCreated(msg.sender, to, amount, transactionId);\r\n    }\r\n\r\n    function getPendingTransactions()\r\n      view\r\n      validOwner\r\n      public\r\n      returns (uint[]) {\r\n      return _pendingTransactions;\r\n    }\r\n\r\n    function signTransaction(uint transactionId)\r\n      validOwner\r\n      public {\r\n\r\n      Transaction storage transaction = _transactions[transactionId];\r\n\r\n      // Transaction must exist\r\n      require(0x0 != transaction.from);\r\n      // Creator cannot sign the transaction\r\n      require(msg.sender != transaction.from);\r\n      // Cannot sign a transaction more than once\r\n      require(transaction.signatures[msg.sender] != 1);\r\n\r\n      transaction.signatures[msg.sender] = 1;\r\n      transaction.signatureCount++;\r\n\r\n      TransactionSigned(msg.sender, transactionId);\r\n\r\n      if (transaction.signatureCount >= MIN_SIGNATURES) {\r\n        require(address(this).balance >= transaction.amount);\r\n        transaction.to.transfer(transaction.amount);\r\n        TransactionCompleted(transaction.from, transaction.to, transaction.amount, transactionId);\r\n        deleteTransaction(transactionId);\r\n      }\r\n    }\r\n\r\n    function deleteTransaction(uint transactionId)\r\n      validOwner\r\n      public {\r\n      uint8 replace = 0;\r\n      for(uint i = 0; i < _pendingTransactions.length; i++) {\r\n        if (1 == replace) {\r\n          _pendingTransactions[i-1] = _pendingTransactions[i];\r\n        } else if (transactionId == _pendingTransactions[i]) {\r\n          replace = 1;\r\n        }\r\n      }\r\n      delete _pendingTransactions[_pendingTransactions.length - 1];\r\n      _pendingTransactions.length--;\r\n      delete _transactions[transactionId];\r\n    }\r\n\r\n    function walletBalance()\r\n      constant\r\n      public\r\n      returns (uint) {\r\n      return address(this).balance;\r\n    }\r\n}\r\n",
  "sourcePath": "C:\\solidity\\learning-solidity-master\\tutorial-25\\contracts\\MultiSigWallet.sol",
  "compiler": {
    "name": "solc",
    "version": "0.4.19+commit.c4cbbb05.Emscripten.clang"
  },
  "schemaVersion": "1.0.1",
  "updatedAt": "2018-02-25T20:09:13.811Z"
}