{
  "contractName": "CourseTokenV3",
  "abi": [
    {
      "constant": true,
      "inputs": [],
      "name": "name",
      "outputs": [
        {
          "name": "",
          "type": "string"
        }
      ],
      "payable": false,
      "type": "function",
      "stateMutability": "view"
    },
    {
      "constant": false,
      "inputs": [
        {
          "name": "_spender",
          "type": "address"
        },
        {
          "name": "_value",
          "type": "uint256"
        }
      ],
      "name": "approve",
      "outputs": [
        {
          "name": "success",
          "type": "bool"
        }
      ],
      "payable": false,
      "type": "function",
      "stateMutability": "nonpayable"
    },
    {
      "constant": true,
      "inputs": [],
      "name": "totalSupply",
      "outputs": [
        {
          "name": "",
          "type": "uint256"
        }
      ],
      "payable": false,
      "type": "function",
      "stateMutability": "view"
    },
    {
      "constant": false,
      "inputs": [
        {
          "name": "_from",
          "type": "address"
        },
        {
          "name": "_to",
          "type": "address"
        },
        {
          "name": "_value",
          "type": "uint256"
        }
      ],
      "name": "transferFrom",
      "outputs": [
        {
          "name": "success",
          "type": "bool"
        }
      ],
      "payable": false,
      "type": "function",
      "stateMutability": "nonpayable"
    },
    {
      "constant": true,
      "inputs": [],
      "name": "decimals",
      "outputs": [
        {
          "name": "",
          "type": "uint8"
        }
      ],
      "payable": false,
      "type": "function",
      "stateMutability": "view"
    },
    {
      "constant": true,
      "inputs": [
        {
          "name": "_someone",
          "type": "address"
        }
      ],
      "name": "balanceOf",
      "outputs": [
        {
          "name": "balance",
          "type": "uint256"
        }
      ],
      "payable": false,
      "type": "function",
      "stateMutability": "view"
    },
    {
      "constant": true,
      "inputs": [],
      "name": "symbol",
      "outputs": [
        {
          "name": "",
          "type": "string"
        }
      ],
      "payable": false,
      "type": "function",
      "stateMutability": "view"
    },
    {
      "constant": false,
      "inputs": [
        {
          "name": "additional",
          "type": "uint256"
        },
        {
          "name": "_value",
          "type": "uint256"
        }
      ],
      "name": "decreaseSupply",
      "outputs": [
        {
          "name": "success",
          "type": "bool"
        }
      ],
      "payable": false,
      "type": "function",
      "stateMutability": "nonpayable"
    },
    {
      "constant": false,
      "inputs": [
        {
          "name": "_to",
          "type": "address"
        },
        {
          "name": "_value",
          "type": "uint256"
        }
      ],
      "name": "transfer",
      "outputs": [
        {
          "name": "success",
          "type": "bool"
        }
      ],
      "payable": false,
      "type": "function",
      "stateMutability": "nonpayable"
    },
    {
      "inputs": [
        {
          "name": "additional",
          "type": "uint256"
        }
      ],
      "payable": false,
      "type": "function",
      "constant": false,
      "name": "increaseSupply",
      "outputs": [
        {
          "name": "success",
          "type": "bool"
        }
      ],
      "stateMutability": "nonpayable"
    },
    {
      "payable": false,
      "type": "function",
      "constant": true,
      "inputs": [
        {
          "name": "_owner",
          "type": "address"
        },
        {
          "name": "_spender",
          "type": "address"
        }
      ],
      "name": "allowance",
      "outputs": [
        {
          "name": "remaining",
          "type": "uint256"
        }
      ],
      "stateMutability": "view"
    },
    {
      "anonymous": false,
      "inputs": [
        {
          "indexed": true,
          "name": "initSupply",
          "type": "uint256"
        },
        {
          "indexed": true,
          "name": "_spender",
          "type": "address"
        },
        {
          "indexed": false,
          "name": "_value",
          "type": "uint256"
        }
      ],
      "name": "Approval",
      "type": "constructor",
      "payable": false,
      "stateMutability": "nonpayable"
    },
    {
      "anonymous": false,
      "inputs": [
        {
          "indexed": false,
          "name": "_from",
          "type": "address"
        },
        {
          "indexed": false,
          "name": "_to",
          "type": "address"
        },
        {
          "indexed": false,
          "name": "_value",
          "type": "uint256"
        }
      ],
      "name": "Transfer",
      "type": "fallback",
      "payable": false,
      "stateMutability": "nonpayable"
    },
    {
      "anonymous": false,
      "inputs": [
        {
          "indexed": true,
          "name": "_owner",
          "type": "address"
        },
        {
          "indexed": true,
          "name": "_spender",
          "type": "address"
        },
        {
          "indexed": false,
          "name": "_value",
          "type": "uint256"
        }
      ],
      "name": "Approval",
      "type": "event"
    },
    {
      "anonymous": false,
      "inputs": [
        {
          "indexed": false,
          "name": "_from",
          "type": "address"
        },
        {
          "indexed": false,
          "name": "_to",
          "type": "address"
        },
        {
          "indexed": false,
          "name": "_value",
          "type": "uint256"
        }
      ],
      "name": "Transfer",
      "type": "event"
    }
  ],
  "bytecode": "0x6060604052341561000f57600080fd5b604051602080610c1e83398101604052808051906020019091905050808080600081905550600054600160003373ffffffffffffffffffffffffffffffffffffffff1673ffffffffffffffffffffffffffffffffffffffff16815260200190815260200160002081905550505050610b928061008c6000396000f3006060604052600436106100af576000357c0100000000000000000000000000000000000000000000000000000000900463ffffffff16806306fdde03146100cd578063095ea7b31461015b57806318160ddd146101b557806323b872dd146101de578063313ce5671461025757806370a082311461028657806395d89b41146102d357806398e52f9a14610361578063a9059cbb1461039c578063b921e163146103f6578063dd62ed3e14610431575b34156100ba57600080fd5b60001515600115151415156100cb57fe5b005b34156100d857600080fd5b6100e061049d565b6040518080602001828103825283818151815260200191508051906020019080838360005b83811015610120578082015181840152602081019050610105565b50505050905090810190601f16801561014d5780820380516001836020036101000a031916815260200191505b509250505060405180910390f35b341561016657600080fd5b61019b600480803573ffffffffffffffffffffffffffffffffffffffff169060200190919080359060200190919050506104d6565b604051808215151515815260200191505060405180910390f35b34156101c057600080fd5b6101c86105db565b6040518082815260200191505060405180910390f35b34156101e957600080fd5b61023d600480803573ffffffffffffffffffffffffffffffffffffffff1690602001909190803573ffffffffffffffffffffffffffffffffffffffff169060200190919080359060200190919050506105e1565b604051808215151515815260200191505060405180910390f35b341561026257600080fd5b61026a6108a1565b604051808260ff1660ff16815260200191505060405180910390f35b341561029157600080fd5b6102bd600480803573ffffffffffffffffffffffffffffffffffffffff169060200190919050506108a6565b6040518082815260200191505060405180910390f35b34156102de57600080fd5b6102e66108ef565b6040518080602001828103825283818151815260200191508051906020019080838360005b8381101561032657808201518184015260208101905061030b565b50505050905090810190601f1680156103535780820380516001836020036101000a031916815260200191505b509250505060405180910390f35b341561036c57600080fd5b6103826004808035906020019091905050610928565b604051808215151515815260200191505060405180910390f35b34156103a757600080fd5b6103dc600480803573ffffffffffffffffffffffffffffffffffffffff16906020019091908035906020019091905050610933565b604051808215151515815260200191505060405180910390f35b341561040157600080fd5b6104176004808035906020019091905050610ad4565b604051808215151515815260200191505060405180910390f35b341561043c57600080fd5b610487600480803573ffffffffffffffffffffffffffffffffffffffff1690602001909190803573ffffffffffffffffffffffffffffffffffffffff16906020019091905050610adf565b6040518082815260200191505060405180910390f35b6040805190810160405280601181526020017f5449434b207469636b657420546f6b656e00000000000000000000000000000081525081565b600080821115156104ea57600090506105d5565b81600260003373ffffffffffffffffffffffffffffffffffffffff1673ffffffffffffffffffffffffffffffffffffffff16815260200190815260200160002060008573ffffffffffffffffffffffffffffffffffffffff1673ffffffffffffffffffffffffffffffffffffffff168152602001908152602001600020819055508273ffffffffffffffffffffffffffffffffffffffff163373ffffffffffffffffffffffffffffffffffffffff167f8c5be1e5ebec7d5bd14f71427d1e84f3dd0314c0f7b2291e5b200ac8c7c3b925846040518082815260200191505060405180910390a3600190505b92915050565b60005481565b600080821115156105f5576000905061089a565b81600260008673ffffffffffffffffffffffffffffffffffffffff1673ffffffffffffffffffffffffffffffffffffffff16815260200190815260200160002060003373ffffffffffffffffffffffffffffffffffffffff1673ffffffffffffffffffffffffffffffffffffffff168152602001908152602001600020541015610682576000905061089a565b81600160008673ffffffffffffffffffffffffffffffffffffffff1673ffffffffffffffffffffffffffffffffffffffff1681526020019081526020016000205410156106d2576000905061089a565b81600160008673ffffffffffffffffffffffffffffffffffffffff1673ffffffffffffffffffffffffffffffffffffffff1681526020019081526020016000206000828254039250508190555081600160008573ffffffffffffffffffffffffffffffffffffffff1673ffffffffffffffffffffffffffffffffffffffff1681526020019081526020016000206000828254019250508190555081600260008673ffffffffffffffffffffffffffffffffffffffff1673ffffffffffffffffffffffffffffffffffffffff16815260200190815260200160002060003373ffffffffffffffffffffffffffffffffffffffff1673ffffffffffffffffffffffffffffffffffffffff168152602001908152602001600020600082825403925050819055507fddf252ad1be2c89b69c2b068fc378daa952ba7f163c4a11628f55a4df523b3ef848484604051808473ffffffffffffffffffffffffffffffffffffffff1673ffffffffffffffffffffffffffffffffffffffff1681526020018373ffffffffffffffffffffffffffffffffffffffff1673ffffffffffffffffffffffffffffffffffffffff168152602001828152602001935050505060405180910390a1600190505b9392505050565b600081565b6000600160008373ffffffffffffffffffffffffffffffffffffffff1673ffffffffffffffffffffffffffffffffffffffff168152602001908152602001600020549050919050565b6040805190810160405280600381526020017f544354000000000000000000000000000000000000000000000000000000000081525081565b600060019050919050565b60008082118015610982575081600160003373ffffffffffffffffffffffffffffffffffffffff1673ffffffffffffffffffffffffffffffffffffffff16815260200190815260200160002054105b156109905760009050610ace565b81600160003373ffffffffffffffffffffffffffffffffffffffff1673ffffffffffffffffffffffffffffffffffffffff1681526020019081526020016000206000828254039250508190555081600160008573ffffffffffffffffffffffffffffffffffffffff1673ffffffffffffffffffffffffffffffffffffffff168152602001908152602001600020600082825401925050819055507fddf252ad1be2c89b69c2b068fc378daa952ba7f163c4a11628f55a4df523b3ef338484604051808473ffffffffffffffffffffffffffffffffffffffff1673ffffffffffffffffffffffffffffffffffffffff1681526020018373ffffffffffffffffffffffffffffffffffffffff1673ffffffffffffffffffffffffffffffffffffffff168152602001828152602001935050505060405180910390a1600190505b92915050565b600060019050919050565b6000600260008473ffffffffffffffffffffffffffffffffffffffff1673ffffffffffffffffffffffffffffffffffffffff16815260200190815260200160002060008373ffffffffffffffffffffffffffffffffffffffff1673ffffffffffffffffffffffffffffffffffffffff168152602001908152602001600020549050929150505600a165627a7a723058207a8eb8015e3a4cf7c74c32c1a474549111de9c330f5123444ce74ee02d2d86fb0029",
  "source": "pragma solidity ^0.4.4;\n\nimport './CourseTokenV2.sol';\n// V3 - inherits from V2\n// Add the admin functions * to be done\n//\n// This is JUST A SHELL - Students should try to implement it as an exercise on their own\n//\n// Refer to example admin functions below\n//\n// Implement the administrative functions\ncontract CourseTokenV3 is CourseTokenV2 {\n\n  function CourseTokenV3(uint256 initSupply) CourseTokenV2(initSupply) {\n    // constructor\n    // Feel free to change the constructor\n  }\n\n  function increaseSupply(uint additional) returns (bool success) {\n    // 1. Only owner can take this action\n    // 2. Caller gets the ownership of additional coins\n    return true;\n  }\n\n  function decreaseSupply(uint additional) returns (bool success) {\n    // 1. Only owner can take this action\n    // 2. Caller's token are taken for removal\n    // 3. What happens when caller does not have sufficient balance?\n    return true;\n  }\n\n  // Think of other admin functions you would like to implement\n}\n",
  "sourcePath": "C:\\solidity\\Blockchain-Course\\Blockchain-Course-ERC20-CourseToken-master\\contracts\\CourseTokenV3.sol",
  "compiler": {
    "name": "solc",
    "version": "0.4.18+commit.9cf6e910.Emscripten.clang"
  },
  "schemaVersion": "1.0.1",
  "updatedAt": "2017-11-25T23:23:45.245Z"
}