{
  "contractName": "CourseTokenV1",
  "abi": [
    {
      "constant": true,
      "inputs": [],
      "name": "name",
      "outputs": [
        {
          "name": "",
          "type": "string"
        }
      ],
      "payable": false,
      "type": "function",
      "stateMutability": "view"
    },
    {
      "constant": true,
      "inputs": [],
      "name": "totalSupply",
      "outputs": [
        {
          "name": "",
          "type": "uint256"
        }
      ],
      "payable": false,
      "type": "function",
      "stateMutability": "view"
    },
    {
      "constant": true,
      "inputs": [],
      "name": "decimals",
      "outputs": [
        {
          "name": "",
          "type": "uint8"
        }
      ],
      "payable": false,
      "type": "function",
      "stateMutability": "view"
    },
    {
      "constant": true,
      "inputs": [
        {
          "name": "_someone",
          "type": "address"
        }
      ],
      "name": "balanceOf",
      "outputs": [
        {
          "name": "balance",
          "type": "uint256"
        }
      ],
      "payable": false,
      "type": "function",
      "stateMutability": "view"
    },
    {
      "constant": true,
      "inputs": [],
      "name": "symbol",
      "outputs": [
        {
          "name": "",
          "type": "string"
        }
      ],
      "payable": false,
      "type": "function",
      "stateMutability": "view"
    },
    {
      "constant": false,
      "inputs": [
        {
          "name": "_to",
          "type": "address"
        },
        {
          "name": "_value",
          "type": "uint256"
        }
      ],
      "name": "transfer",
      "outputs": [
        {
          "name": "success",
          "type": "bool"
        }
      ],
      "payable": false,
      "type": "function",
      "stateMutability": "nonpayable"
    },
    {
      "inputs": [
        {
          "name": "initSupply",
          "type": "uint256"
        }
      ],
      "payable": false,
      "type": "constructor",
      "stateMutability": "nonpayable"
    },
    {
      "payable": false,
      "type": "fallback",
      "stateMutability": "nonpayable"
    },
    {
      "anonymous": false,
      "inputs": [
        {
          "indexed": false,
          "name": "_from",
          "type": "address"
        },
        {
          "indexed": false,
          "name": "_to",
          "type": "address"
        },
        {
          "indexed": false,
          "name": "_value",
          "type": "uint256"
        }
      ],
      "name": "Transfer",
      "type": "event"
    }
  ],
  "bytecode": "0x6060604052341561000f57600080fd5b6040516020806105cc8339810160405280805190602001909190505080600081905550600054600160003373ffffffffffffffffffffffffffffffffffffffff1673ffffffffffffffffffffffffffffffffffffffff1681526020019081526020016000208190555050610544806100886000396000f300606060405260043610610078576000357c0100000000000000000000000000000000000000000000000000000000900463ffffffff16806306fdde031461009657806318160ddd14610124578063313ce5671461014d57806370a082311461017c57806395d89b41146101c9578063a9059cbb14610257575b341561008357600080fd5b600015156001151514151561009457fe5b005b34156100a157600080fd5b6100a96102b1565b6040518080602001828103825283818151815260200191508051906020019080838360005b838110156100e95780820151818401526020810190506100ce565b50505050905090810190601f1680156101165780820380516001836020036101000a031916815260200191505b509250505060405180910390f35b341561012f57600080fd5b6101376102ea565b6040518082815260200191505060405180910390f35b341561015857600080fd5b6101606102f0565b604051808260ff1660ff16815260200191505060405180910390f35b341561018757600080fd5b6101b3600480803573ffffffffffffffffffffffffffffffffffffffff169060200190919050506102f5565b6040518082815260200191505060405180910390f35b34156101d457600080fd5b6101dc61033e565b6040518080602001828103825283818151815260200191508051906020019080838360005b8381101561021c578082015181840152602081019050610201565b50505050905090810190601f1680156102495780820380516001836020036101000a031916815260200191505b509250505060405180910390f35b341561026257600080fd5b610297600480803573ffffffffffffffffffffffffffffffffffffffff16906020019091908035906020019091905050610377565b604051808215151515815260200191505060405180910390f35b6040805190810160405280601181526020017f5449434b207469636b657420546f6b656e00000000000000000000000000000081525081565b60005481565b600081565b6000600160008373ffffffffffffffffffffffffffffffffffffffff1673ffffffffffffffffffffffffffffffffffffffff168152602001908152602001600020549050919050565b6040805190810160405280600381526020017f544354000000000000000000000000000000000000000000000000000000000081525081565b600080821180156103c6575081600160003373ffffffffffffffffffffffffffffffffffffffff1673ffffffffffffffffffffffffffffffffffffffff16815260200190815260200160002054105b156103d45760009050610512565b81600160003373ffffffffffffffffffffffffffffffffffffffff1673ffffffffffffffffffffffffffffffffffffffff1681526020019081526020016000206000828254039250508190555081600160008573ffffffffffffffffffffffffffffffffffffffff1673ffffffffffffffffffffffffffffffffffffffff168152602001908152602001600020600082825401925050819055507fddf252ad1be2c89b69c2b068fc378daa952ba7f163c4a11628f55a4df523b3ef338484604051808473ffffffffffffffffffffffffffffffffffffffff1673ffffffffffffffffffffffffffffffffffffffff1681526020018373ffffffffffffffffffffffffffffffffffffffff1673ffffffffffffffffffffffffffffffffffffffff168152602001828152602001935050505060405180910390a1600190505b929150505600a165627a7a723058208489038bb60f89b49428fc25bda817dacfb08bbd0bfa080a39e1e99b8eda54f80029",
  "source": "pragma solidity ^0.4.4;\n\n/**\n * Part of the Ethereum DAPPs design and development course\n * http://ACloudFan.com\n * \n * Implements a simple ERC20 Token\n * V1 >> Implements simple token that does not support approve/transferFrom & allowance function\n *       This version will not be ERC20 compliant as it does not implement all specs funcs/events\n * V2 >> Supports the approve/transferFrom & allowance function\n * V3 >> Add some admin functions that only the owner of the coin can execute\n * \n * Walkthrough is in Section#9 of course\n */\ncontract CourseTokenV1 {\n\n  // 1. Declare the metadata for the coin\n  //    All of thse variables declared public constant - so available as functions\n\n  string public constant name = \"TICK ticket Token\";\n  string public constant symbol = \"TCT\";\n\n  // Token values are passed as integers so decimals is the number of decimals from righ\n  // E.g., decimals = 2, value=100 interpretted as 1.00\n  // E.g., decimals = 1, value=100 interpretted as 10.0\n  uint8  public constant decimals = 0;\n\n  // 6. Declare the event\n  event Transfer(address _from, address _to, uint256 _value);\n\n  // 2. Maintain the total supply\n  uint256 public totalSupply;\n\n  // 4. Maintain the balance in a mapping\n  mapping(address => uint256)  balances;\n\n  // 3. Constructor sets the initial supply as total available\n  function CourseTokenV1(uint256 initSupply) {\n    // constructor\n\n    // Set the initial supply\n    totalSupply = initSupply;\n\n    // Set the sender as the owner of all the initial set of tokens\n    // Declare the balances mapping\n    balances[msg.sender] = totalSupply;\n  }\n\n  // 5. transfer\n  function transfer(address _to, uint256 _value) returns (bool success) {\n    // Return false if specified value is less than the balance available\n    if(_value > 0  && balances[msg.sender] < _value) {\n      return false;\n    }\n\n    // Reduce the balance by _value\n    balances[msg.sender] -= _value;\n\n    // Increase the balance of the receiever that is account with address _to\n    balances[_to] += _value;\n\n    // Declare & Emit the transfer event\n    Transfer(msg.sender, _to, _value);\n\n    return true;\n  }\n\n  // 7. balanceOf\n  // Anyone can call this constant function to check the balance of tokens for an address\n  function balanceOf(address _someone) constant returns (uint256 balance){\n    return balances[_someone];\n  }\n\n  // Fallback function\n  // Do not accept ethers\n  function() {\n    // This will throw an exception - in effect no one can purchase the coin\n    assert(true == false);\n  }\n}\n",
  "sourcePath": "C:\\solidity\\Blockchain-Course\\Blockchain-Course-ERC20-CourseToken-master\\contracts\\CourseTokenV1.sol",
  "compiler": {
    "name": "solc",
    "version": "0.4.18+commit.9cf6e910.Emscripten.clang"
  },
  "schemaVersion": "1.0.1",
  "updatedAt": "2017-11-25T23:23:45.218Z"
}