{
  "contractName": "MultiSigWallet",
  "abi": [
    {
      "inputs": [],
      "payable": false,
      "stateMutability": "nonpayable",
      "type": "constructor"
    },
    {
      "payable": true,
      "stateMutability": "payable",
      "type": "fallback"
    },
    {
      "anonymous": false,
      "inputs": [
        {
          "indexed": false,
          "name": "from",
          "type": "address"
        },
        {
          "indexed": false,
          "name": "amount",
          "type": "uint256"
        }
      ],
      "name": "DepositFunds",
      "type": "event"
    },
    {
      "anonymous": false,
      "inputs": [
        {
          "indexed": false,
          "name": "from",
          "type": "address"
        },
        {
          "indexed": false,
          "name": "to",
          "type": "address"
        },
        {
          "indexed": false,
          "name": "amount",
          "type": "uint256"
        },
        {
          "indexed": false,
          "name": "transactionId",
          "type": "uint256"
        }
      ],
      "name": "TransactionCreated",
      "type": "event"
    },
    {
      "anonymous": false,
      "inputs": [
        {
          "indexed": false,
          "name": "from",
          "type": "address"
        },
        {
          "indexed": false,
          "name": "to",
          "type": "address"
        },
        {
          "indexed": false,
          "name": "amount",
          "type": "uint256"
        },
        {
          "indexed": false,
          "name": "transactionId",
          "type": "uint256"
        }
      ],
      "name": "TransactionCompleted",
      "type": "event"
    },
    {
      "anonymous": false,
      "inputs": [
        {
          "indexed": false,
          "name": "by",
          "type": "address"
        },
        {
          "indexed": false,
          "name": "transactionId",
          "type": "uint256"
        }
      ],
      "name": "TransactionSigned",
      "type": "event"
    },
    {
      "constant": false,
      "inputs": [
        {
          "name": "owner",
          "type": "address"
        }
      ],
      "name": "addOwner",
      "outputs": [],
      "payable": false,
      "stateMutability": "nonpayable",
      "type": "function"
    },
    {
      "constant": false,
      "inputs": [
        {
          "name": "owner",
          "type": "address"
        }
      ],
      "name": "removeOwner",
      "outputs": [],
      "payable": false,
      "stateMutability": "nonpayable",
      "type": "function"
    },
    {
      "constant": false,
      "inputs": [],
      "name": "send",
      "outputs": [],
      "payable": true,
      "stateMutability": "payable",
      "type": "function"
    },
    {
      "constant": false,
      "inputs": [
        {
          "name": "amount",
          "type": "uint256"
        }
      ],
      "name": "withdraw",
      "outputs": [],
      "payable": false,
      "stateMutability": "nonpayable",
      "type": "function"
    },
    {
      "constant": false,
      "inputs": [
        {
          "name": "to",
          "type": "address"
        },
        {
          "name": "amount",
          "type": "uint256"
        }
      ],
      "name": "transferTo",
      "outputs": [],
      "payable": false,
      "stateMutability": "nonpayable",
      "type": "function"
    },
    {
      "constant": true,
      "inputs": [],
      "name": "getActiveTransactions",
      "outputs": [
        {
          "name": "",
          "type": "uint256[]"
        }
      ],
      "payable": false,
      "stateMutability": "view",
      "type": "function"
    },
    {
      "constant": false,
      "inputs": [
        {
          "name": "transactionId",
          "type": "uint256"
        }
      ],
      "name": "signTransaction",
      "outputs": [],
      "payable": false,
      "stateMutability": "nonpayable",
      "type": "function"
    },
    {
      "constant": false,
      "inputs": [
        {
          "name": "transactionId",
          "type": "uint256"
        }
      ],
      "name": "deleteTransaction",
      "outputs": [],
      "payable": false,
      "stateMutability": "nonpayable",
      "type": "function"
    },
    {
      "constant": true,
      "inputs": [],
      "name": "getPendingTransactionLength",
      "outputs": [
        {
          "name": "",
          "type": "uint256"
        }
      ],
      "payable": false,
      "stateMutability": "view",
      "type": "function"
    },
    {
      "constant": true,
      "inputs": [],
      "name": "walletBalance",
      "outputs": [
        {
          "name": "",
          "type": "uint256"
        }
      ],
      "payable": false,
      "stateMutability": "view",
      "type": "function"
    }
  ],
  "bytecode": "0x6060604052341561000f57600080fd5b336000806101000a81548173ffffffffffffffffffffffffffffffffffffffff021916908373ffffffffffffffffffffffffffffffffffffffff1602179055506111e38061005e6000396000f3006060604052600436106100a3576000357c0100000000000000000000000000000000000000000000000000000000900463ffffffff168062e9c00614610110578063173825d9146101335780632ccb1b301461016c5780632e1a7d4d146101ae5780635d9ec210146101d15780637065cb48146101f4578063b46300ec1461022d578063cd0a314b14610237578063eb96e3ab14610260578063fe3da61114610289575b7fd241e73300212f6df233a8e6d3146b88a9d4964e06621d54b5ff6afeba7b1b883334604051808373ffffffffffffffffffffffffffffffffffffffff1673ffffffffffffffffffffffffffffffffffffffff1681526020018281526020019250505060405180910390a1005b341561011b57600080fd5b61013160048080359060200190919050506102f3565b005b341561013e57600080fd5b61016a600480803573ffffffffffffffffffffffffffffffffffffffff16906020019091905050610526565b005b341561017757600080fd5b6101ac600480803573ffffffffffffffffffffffffffffffffffffffff16906020019091908035906020019091905050610636565b005b34156101b957600080fd5b6101cf6004808035906020019091905050610960565b005b34156101dc57600080fd5b6101f26004808035906020019091905050610a21565b005b34156101ff57600080fd5b61022b600480803573ffffffffffffffffffffffffffffffffffffffff16906020019091905050610e7f565b005b610235610f8e565b005b341561024257600080fd5b61024a610f90565b6040518082815260200191505060405180910390f35b341561026b57600080fd5b610273610faf565b6040518082815260200191505060405180910390f35b341561029457600080fd5b61029c610fbc565b6040518080602001828103825283818151815260200191508051906020019060200280838360005b838110156102df5780820151818401526020810190506102c4565b505050509050019250505060405180910390f35b6000806000809054906101000a900473ffffffffffffffffffffffffffffffffffffffff1673ffffffffffffffffffffffffffffffffffffffff163373ffffffffffffffffffffffffffffffffffffffff16148061039f575060018060003373ffffffffffffffffffffffffffffffffffffffff1673ffffffffffffffffffffffffffffffffffffffff16815260200190815260200160002060009054906101000a900460ff1660ff16145b15156103aa57600080fd5b6000915060006003805490501115156103c257600080fd5b600090505b600380549050811015610456578160ff1660011415610421576003818154811015156103ef57fe5b90600052602060002090015460036001830381548110151561040d57fe5b906000526020600020900181905550610449565b8260038281548110151561043157fe5b906000526020600020900154141561044857600191505b5b80806001019150506103c7565b60018260ff1614151561046557fe5b600360016003805490500381548110151561047c57fe5b90600052602060002090016000905560038054809190600190036104a091906110ce565b5060046000848152602001908152602001600020600080820160006101000a81549073ffffffffffffffffffffffffffffffffffffffff02191690556001820160006101000a81549073ffffffffffffffffffffffffffffffffffffffff021916905560028201600090556003820160006101000a81549060ff02191690555050505050565b6000809054906101000a900473ffffffffffffffffffffffffffffffffffffffff1673ffffffffffffffffffffffffffffffffffffffff163373ffffffffffffffffffffffffffffffffffffffff1614806105cf575060018060003373ffffffffffffffffffffffffffffffffffffffff1673ffffffffffffffffffffffffffffffffffffffff16815260200190815260200160002060009054906101000a900460ff1660ff16145b15156105da57600080fd5b6000600160008373ffffffffffffffffffffffffffffffffffffffff1673ffffffffffffffffffffffffffffffffffffffff16815260200190815260200160002060006101000a81548160ff021916908360ff16021790555050565b60006106406110fa565b6000809054906101000a900473ffffffffffffffffffffffffffffffffffffffff1673ffffffffffffffffffffffffffffffffffffffff163373ffffffffffffffffffffffffffffffffffffffff1614806106e9575060018060003373ffffffffffffffffffffffffffffffffffffffff1673ffffffffffffffffffffffffffffffffffffffff16815260200190815260200160002060009054906101000a900460ff1660ff16145b15156106f457600080fd5b823073ffffffffffffffffffffffffffffffffffffffff16311015151561071a57600080fd5b6002600081548092919060010191905055915033816000019073ffffffffffffffffffffffffffffffffffffffff16908173ffffffffffffffffffffffffffffffffffffffff168152505083816020019073ffffffffffffffffffffffffffffffffffffffff16908173ffffffffffffffffffffffffffffffffffffffff1681525050828160400181815250506000816060019060ff16908160ff1681525050806004600084815260200190815260200160002060008201518160000160006101000a81548173ffffffffffffffffffffffffffffffffffffffff021916908373ffffffffffffffffffffffffffffffffffffffff16021790555060208201518160010160006101000a81548173ffffffffffffffffffffffffffffffffffffffff021916908373ffffffffffffffffffffffffffffffffffffffff1602179055506040820151816002015560608201518160030160006101000a81548160ff021916908360ff1602179055509050506003805480600101828161089e9190611152565b9160005260206000209001600084909190915055507f41d8c89c4a25824354aa1f198d80d06f2f93f903a2d180d1ea20429a4678c4a433858585604051808573ffffffffffffffffffffffffffffffffffffffff1673ffffffffffffffffffffffffffffffffffffffff1681526020018473ffffffffffffffffffffffffffffffffffffffff1673ffffffffffffffffffffffffffffffffffffffff16815260200183815260200182815260200194505050505060405180910390a150505050565b6000809054906101000a900473ffffffffffffffffffffffffffffffffffffffff1673ffffffffffffffffffffffffffffffffffffffff163373ffffffffffffffffffffffffffffffffffffffff161480610a09575060018060003373ffffffffffffffffffffffffffffffffffffffff1673ffffffffffffffffffffffffffffffffffffffff16815260200190815260200160002060009054906101000a900460ff1660ff16145b1515610a1457600080fd5b610a1e3382610636565b50565b60008060009054906101000a900473ffffffffffffffffffffffffffffffffffffffff1673ffffffffffffffffffffffffffffffffffffffff163373ffffffffffffffffffffffffffffffffffffffff161480610acc575060018060003373ffffffffffffffffffffffffffffffffffffffff1673ffffffffffffffffffffffffffffffffffffffff16815260200190815260200160002060009054906101000a900460ff1660ff16145b1515610ad757600080fd5b6004600083815260200190815260200160002090508060000160009054906101000a900473ffffffffffffffffffffffffffffffffffffffff1673ffffffffffffffffffffffffffffffffffffffff16600014151515610b3657600080fd5b8060000160009054906101000a900473ffffffffffffffffffffffffffffffffffffffff1673ffffffffffffffffffffffffffffffffffffffff163373ffffffffffffffffffffffffffffffffffffffff1614151515610b9557600080fd5b60008160040160003373ffffffffffffffffffffffffffffffffffffffff1673ffffffffffffffffffffffffffffffffffffffff16815260200190815260200160002060009054906101000a900460ff1660ff16141515610bf557600080fd5b60018160040160003373ffffffffffffffffffffffffffffffffffffffff1673ffffffffffffffffffffffffffffffffffffffff16815260200190815260200160002060006101000a81548160ff021916908360ff16021790555080600301600081819054906101000a900460ff168092919060010191906101000a81548160ff021916908360ff160217905550507fac63e7e1dc16bccf900879686e74ca33eeb175b670e3aaa9d7e4ccf3781b7a7a3383604051808373ffffffffffffffffffffffffffffffffffffffff1673ffffffffffffffffffffffffffffffffffffffff1681526020018281526020019250505060405180910390a1600260ff168160030160009054906101000a900460ff1660ff16101515610e7b5780600201543073ffffffffffffffffffffffffffffffffffffffff163110151515610d3a57600080fd5b8060010160009054906101000a900473ffffffffffffffffffffffffffffffffffffffff1673ffffffffffffffffffffffffffffffffffffffff166108fc82600201549081150290604051600060405180830381858888f193505050501515610da257600080fd5b7f394c4e679790fab24fd86614fd812811c9c835e4c475bdfc3d26fd0d6f7ca6fd338260010160009054906101000a900473ffffffffffffffffffffffffffffffffffffffff16836002015485604051808573ffffffffffffffffffffffffffffffffffffffff1673ffffffffffffffffffffffffffffffffffffffff1681526020018473ffffffffffffffffffffffffffffffffffffffff1673ffffffffffffffffffffffffffffffffffffffff16815260200183815260200182815260200194505050505060405180910390a1610e7a826102f3565b5b5050565b6000809054906101000a900473ffffffffffffffffffffffffffffffffffffffff1673ffffffffffffffffffffffffffffffffffffffff163373ffffffffffffffffffffffffffffffffffffffff161480610f28575060018060003373ffffffffffffffffffffffffffffffffffffffff1673ffffffffffffffffffffffffffffffffffffffff16815260200190815260200160002060009054906101000a900460ff1660ff16145b1515610f3357600080fd5b60018060008373ffffffffffffffffffffffffffffffffffffffff1673ffffffffffffffffffffffffffffffffffffffff16815260200190815260200160002060006101000a81548160ff021916908360ff16021790555050565b565b60003073ffffffffffffffffffffffffffffffffffffffff1631905090565b6000600380549050905090565b610fc461117e565b6000809054906101000a900473ffffffffffffffffffffffffffffffffffffffff1673ffffffffffffffffffffffffffffffffffffffff163373ffffffffffffffffffffffffffffffffffffffff16148061106d575060018060003373ffffffffffffffffffffffffffffffffffffffff1673ffffffffffffffffffffffffffffffffffffffff16815260200190815260200160002060009054906101000a900460ff1660ff16145b151561107857600080fd5b60038054806020026020016040519081016040528092919081815260200182805480156110c457602002820191906000526020600020905b8154815260200190600101908083116110b0575b5050505050905090565b8154818355818115116110f5578183600052602060002091820191016110f49190611192565b5b505050565b608060405190810160405280600073ffffffffffffffffffffffffffffffffffffffff168152602001600073ffffffffffffffffffffffffffffffffffffffff16815260200160008152602001600060ff1681525090565b815481835581811511611179578183600052602060002091820191016111789190611192565b5b505050565b602060405190810160405280600081525090565b6111b491905b808211156111b0576000816000905550600101611198565b5090565b905600a165627a7a7230582043838f4add563c3280fbb56c06efaca229cd17c8913a3875fac5cddd5c4341e70029",
  "source": "pragma solidity ^0.4.0;\r\n\r\ncontract MultiSigWallet {\r\n\r\n    address private _owner;\r\n    mapping(address => uint8) private _owners;\r\n\r\n    uint _transactionIdx;\r\n    uint[] private _pendingTransactions;\r\n\r\n    struct Transaction {\r\n      address from;\r\n      address to;\r\n      uint amount;\r\n      uint8 signatureCount;\r\n      mapping (address => uint8) signatures;\r\n    }\r\n\r\n    mapping(uint => Transaction) _transactions;\r\n    uint8 constant private _sigRequiredCount = 2;\r\n\r\n    modifier validOwner() {\r\n        require(msg.sender == _owner || _owners[msg.sender] == 1);\r\n        //require(_owners[msg.sender] == 1);\r\n        _;\r\n    }\r\n\r\n    event DepositFunds(address from, uint amount);\r\n    event TransactionCreated(address from, address to, uint amount, uint transactionId);\r\n    event TransactionCompleted(address from, address to, uint amount, uint transactionId);\r\n    event TransactionSigned(address by, uint transactionId);\r\n\r\n    function MultiSigWallet()\r\n        public {\r\n        // Set master contract owner\r\n        _owner = msg.sender;\r\n        //_owners[msg.sender] = 1;\r\n    }\r\n\r\n    function addOwner(address owner)\r\n        // isOwner\r\n        validOwner\r\n        public {\r\n        _owners[owner] = 1;\r\n    }\r\n\r\n    function removeOwner(address owner)\r\n        // isOwner\r\n        // The owner validation was missing\r\n        validOwner\r\n        public {\r\n        _owners[owner] = 0;\r\n    }\r\n\r\n    function ()\r\n        public\r\n        payable {\r\n        DepositFunds(msg.sender, msg.value);\r\n    }\r\n\r\n    function send()\r\n      public\r\n      payable{}\r\n\r\n    function withdraw(uint amount)\r\n        validOwner\r\n        public {\r\n        transferTo(msg.sender, amount);\r\n    }\r\n\r\n    function transferTo(address to, uint amount)\r\n        validOwner\r\n        public {\r\n        require(address(this).balance >= amount);\r\n        uint transactionId = _transactionIdx++;\r\n        Transaction memory transaction;\r\n        transaction.from = msg.sender;\r\n        transaction.to = to;\r\n        transaction.amount = amount;\r\n        transaction.signatureCount = 0;\r\n        _transactions[transactionId] = transaction;\r\n        _pendingTransactions.push(transactionId);\r\n        TransactionCreated(msg.sender, to, amount, transactionId);\r\n    }\r\n\r\n    function getActiveTransactions()\r\n      validOwner\r\n      view\r\n      public\r\n      returns (uint[]) {\r\n      return _pendingTransactions;\r\n    }\r\n\r\n    function signTransaction(uint transactionId)\r\n      validOwner\r\n      public {\r\n\r\n      Transaction storage transaction = _transactions[transactionId];\r\n\r\n      // Transaction must exist\r\n      require(0x0 != transaction.from);\r\n      //Creator cannot sign this\r\n      require(msg.sender != transaction.from);\r\n      // Has not already signed this transaction\r\n      require(transaction.signatures[msg.sender] == 0);\r\n\r\n      transaction.signatures[msg.sender] = 1;\r\n      transaction.signatureCount++;\r\n\r\n      TransactionSigned(msg.sender, transactionId);\r\n\r\n      if (transaction.signatureCount >= _sigRequiredCount) {\r\n        require(address(this).balance >= transaction.amount);\r\n        transaction.to.transfer(transaction.amount);\r\n        TransactionCompleted(msg.sender, transaction.to, transaction.amount, transactionId);\r\n        deleteTransaction(transactionId);\r\n      }\r\n    }\r\n\r\n    function deleteTransaction(uint transactionId)\r\n      validOwner\r\n      public {\r\n      uint8 replace = 0;\r\n      require(_pendingTransactions.length > 0);\r\n      for(uint i = 0; i < _pendingTransactions.length; i++) {\r\n          if (1 == replace) {\r\n              _pendingTransactions[i-1] = _pendingTransactions[i];\r\n          } else if (_pendingTransactions[i] == transactionId) {\r\n              replace = 1;\r\n          }\r\n      }\r\n      assert(replace == 1);\r\n      // Created an Overflow\r\n      delete _pendingTransactions[_pendingTransactions.length - 1];\r\n      _pendingTransactions.length--;\r\n      delete _transactions[transactionId];\r\n    }\r\n\r\n    function getPendingTransactionLength()\r\n      public\r\n      view\r\n      returns (uint) {\r\n      return _pendingTransactions.length;\r\n    }\r\n\r\n    function walletBalance()\r\n        constant\r\n        public returns (uint) {\r\n        return address(this).balance;\r\n    }\r\n}\r\n",
  "sourcePath": "C:\\solidity\\learning-solidity-master\\tutorial-26\\contracts\\MultiSigWallet.sol",
  "compiler": {
    "name": "solc",
    "version": "0.4.19+commit.c4cbbb05.Emscripten.clang"
  },
  "schemaVersion": "1.0.1",
  "updatedAt": "2018-02-25T20:10:44.307Z"
}